{"contracts/SmartContractManager.sol":{"SmartContractManager":{"abi":[{"inputs":[],"stateMutability":"nonpayable","type":"constructor"},{"anonymous":false,"inputs":[{"indexed":true,"internalType":"address","name":"contractAddress","type":"address"},{"indexed":false,"internalType":"string","name":"description","type":"string"}],"name":"ContractAdded","type":"event"},{"anonymous":false,"inputs":[{"indexed":true,"internalType":"address","name":"contractAddress","type":"address"}],"name":"ContractRemoved","type":"event"},{"anonymous":false,"inputs":[{"indexed":true,"internalType":"address","name":"contractAddress","type":"address"},{"indexed":false,"internalType":"string","name":"newDescription","type":"string"}],"name":"ContractUpdated","type":"event"},{"anonymous":false,"inputs":[{"indexed":true,"internalType":"address","name":"previousOwner","type":"address"},{"indexed":true,"internalType":"address","name":"newOwner","type":"address"}],"name":"OwnershipTransferred","type":"event"},{"inputs":[],"name":"MAX_BATCH_SIZE","outputs":[{"internalType":"uint256","name":"","type":"uint256"}],"stateMutability":"view","type":"function"},{"inputs":[{"internalType":"address[]","name":"_contractAddresses","type":"address[]"},{"internalType":"string[]","name":"_descriptions","type":"string[]"}],"name":"addContracts","outputs":[],"stateMutability":"nonpayable","type":"function"},{"inputs":[{"internalType":"address","name":"","type":"address"}],"name":"contracts","outputs":[{"internalType":"string","name":"","type":"string"}],"stateMutability":"view","type":"function"},{"inputs":[],"name":"owner","outputs":[{"internalType":"address","name":"","type":"address"}],"stateMutability":"view","type":"function"},{"inputs":[{"internalType":"address","name":"_contractAddress","type":"address"}],"name":"removeContract","outputs":[],"stateMutability":"nonpayable","type":"function"},{"inputs":[],"name":"renounceOwnership","outputs":[],"stateMutability":"nonpayable","type":"function"},{"inputs":[{"internalType":"address","name":"newOwner","type":"address"}],"name":"transferOwnership","outputs":[],"stateMutability":"nonpayable","type":"function"},{"inputs":[{"internalType":"address","name":"_contractAddress","type":"address"},{"internalType":"string","name":"_newDescription","type":"string"}],"name":"updateContract","outputs":[],"stateMutability":"nonpayable","type":"function"}],"evm":{"bytecode":{"linkReferences":{},"object":"608060405234801561001057600080fd5b5061002d61002261004c60201b60201c565b61005460201b60201c565b610047670926368adb6eff3260c01b61011860201b60201c565b61011b565b600033905090565b60008060009054906101000a900473ffffffffffffffffffffffffffffffffffffffff169050816000806101000a81548173ffffffffffffffffffffffffffffffffffffffff021916908373ffffffffffffffffffffffffffffffffffffffff1602179055508173ffffffffffffffffffffffffffffffffffffffff168173ffffffffffffffffffffffffffffffffffffffff167f8be0079c531659141344cd1fd0a4f28419497f9722a3daafe3b4186f6b6457e060405160405180910390a35050565b50565b611b2e806200012b6000396000f3fe608060405234801561001057600080fd5b50600436106100885760003560e01c80638da5cb5b1161005b5780638da5cb5b146100ff578063c375c2ef1461011d578063cfdbf25414610139578063f2fde38b1461015757610088565b806337809b241461008d5780635afe435f146100a957806369dc9ff3146100c5578063715018a6146100f5575b600080fd5b6100a760048036038101906100a29190610f1a565b610173565b005b6100c360048036038101906100be919061104f565b610659565b005b6100df60048036038101906100da91906110af565b610957565b6040516100ec919061116c565b60405180910390f35b6100fd6109f7565b005b610107610a0b565b604051610114919061119d565b60405180910390f35b610137600480360381019061013291906110af565b610a34565b005b610141610c23565b60405161014e91906111d1565b60405180910390f35b610171600480360381019061016c91906110af565b610c28565b005b61018767c4627f4a5ab8dcbb60c01b610cab565b61018f610cae565b6101a367e84ac1c8c8b180d360c01b610cab565b6101b7679a14060da9547f1660c01b610cab565b6101cb67d0e463ad0c26ee2e60c01b610cab565b6101df675ce55ee282f6272160c01b610cab565b6101f367b1a72015e8d4279d60c01b610cab565b81819050848490501461023b576040517f08c379a000000000000000000000000000000000000000000000000000000000815260040161023290611238565b60405180910390fd5b61024f675086497eb927a27660c01b610cab565b610263674d8fc7ce0be7928960c01b610cab565b61027767c42ce77fa305774a60c01b610cab565b61028b67b7c3a19b635fccb160c01b610cab565b60148484905011156102d2576040517f08c379a00000000000000000000000000000000000000000000000000000000081526004016102c9906112a4565b60405180910390fd5b6102e667d8c73ff7e8e93ee760c01b610cab565b6102fa67017560685ffba1f160c01b610cab565b61030e670c8f8613c5fa2f2160c01b610cab565b60005b848490508110156106525761033067dc0a8e8cab6644b860c01b610cab565b61034467410face3abd9a5c660c01b610cab565b6000858583818110610359576103586112c4565b5b905060200201602081019061036e91906110af565b905061038467eb47b982860fbe7760c01b610cab565b6103986766947f0b8b5f58e260c01b610cab565b3660008585858181106103ae576103ad6112c4565b5b90506020028101906103c09190611302565b915091506103d867393ea1a3d9b0e00b60c01b610cab565b6103ec67e9d2e769bab9c95060c01b610cab565b61040067bf8140637c415e4460c01b610cab565b600073ffffffffffffffffffffffffffffffffffffffff168373ffffffffffffffffffffffffffffffffffffffff160361046f576040517f08c379a0000000000000000000000000000000000000000000000000000000008152600401610466906113b1565b60405180910390fd5b610483679f34d30013321d3560c01b610cab565b61049767aa583e18380df83360c01b610cab565b6104ab67ab846b3e7c4fb7f260c01b610cab565b6104bf678cb6eda87c139fca60c01b610cab565b6000600160008573ffffffffffffffffffffffffffffffffffffffff1673ffffffffffffffffffffffffffffffffffffffff168152602001908152602001600020805461050b90611400565b90501461054d576040517f08c379a00000000000000000000000000000000000000000000000000000000081526004016105449061147d565b60405180910390fd5b6105616717d154ccd32c482560c01b610cab565b61057567f2c401badcdd537f60c01b610cab565b8181600160008673ffffffffffffffffffffffffffffffffffffffff1673ffffffffffffffffffffffffffffffffffffffff16815260200190815260200160002091826105c3929190611683565b506105d86795ba663c0ab0574460c01b610cab565b6105ec6775c153518994442160c01b610cab565b8273ffffffffffffffffffffffffffffffffffffffff167fccdd6d86e4b322abaa06bff8c608dd15838f4159cc081c9c66a50fec320f38a7838360405161063492919061178f565b60405180910390a2505050808061064a906117e2565b915050610311565b5050505050565b61066d67c7a0864630f9d9d760c01b610cab565b610675610cae565b610689676270b1c088e4426b60c01b610cab565b61069d6756a583b7c63fed9460c01b610cab565b6106b167606dc94a13f99f8760c01b610cab565b6106c567af10bc2afccb6c4260c01b610cab565b6106d9677accae29c3a282cd60c01b610cab565b6000600160008573ffffffffffffffffffffffffffffffffffffffff1673ffffffffffffffffffffffffffffffffffffffff168152602001908152602001600020805461072590611400565b905011610767576040517f08c379a000000000000000000000000000000000000000000000000000000000815260040161075e90611876565b60405180910390fd5b61077b67969f993f61d17de660c01b610cab565b61078f678fbefa1d60427aed60c01b610cab565b6107a367de532d291bd6ed9160c01b610cab565b6107b76794d65860f4cef78060c01b610cab565b81816040516107c79291906118c6565b6040518091039020600160008573ffffffffffffffffffffffffffffffffffffffff1673ffffffffffffffffffffffffffffffffffffffff16815260200190815260200160002060405161081b9190611977565b604051809103902003610863576040517f08c379a000000000000000000000000000000000000000000000000000000000815260040161085a906119da565b60405180910390fd5b61087767cc2df581c256f31a60c01b610cab565b61088b6766e179212b03389960c01b610cab565b8181600160008673ffffffffffffffffffffffffffffffffffffffff1673ffffffffffffffffffffffffffffffffffffffff16815260200190815260200160002091826108d9929190611683565b506108ee67deed78fb621148e760c01b610cab565b61090267b800f73e6d28695660c01b610cab565b8273ffffffffffffffffffffffffffffffffffffffff167fb52cc2c9728d9a3773c00a19a9c543f53d1e8befcdc0135d047a86e916fa7f06838360405161094a92919061178f565b60405180910390a2505050565b6001602052806000526040600020600091509050805461097690611400565b80601f01602080910402602001604051908101604052809291908181526020018280546109a290611400565b80156109ef5780601f106109c4576101008083540402835291602001916109ef565b820191906000526020600020905b8154815290600101906020018083116109d257829003601f168201915b505050505081565b6109ff610cae565b610a096000610d2c565b565b60008060009054906101000a900473ffffffffffffffffffffffffffffffffffffffff16905090565b610a4867a28d127582b1644960c01b610cab565b610a50610cae565b610a6467a31d21ba15df9f1e60c01b610cab565b610a78678370184bde8af0fa60c01b610cab565b610a8c670841adba70d1ec0960c01b610cab565b610aa06702de47b5caa70b9d60c01b610cab565b610ab467ada2246a34dce03560c01b610cab565b6000600160008373ffffffffffffffffffffffffffffffffffffffff1673ffffffffffffffffffffffffffffffffffffffff1681526020019081526020016000208054610b0090611400565b905011610b42576040517f08c379a0000000000000000000000000000000000000000000000000000000008152600401610b3990611876565b60405180910390fd5b610b5667af9d907d6adcf05660c01b610cab565b610b6a67b43cf58f94365c4260c01b610cab565b600160008273ffffffffffffffffffffffffffffffffffffffff1673ffffffffffffffffffffffffffffffffffffffff1681526020019081526020016000206000610bb59190610df8565b610bc9677670b3d1bbec824e60c01b610cab565b610bdd6744c3e877627b3db260c01b610cab565b8073ffffffffffffffffffffffffffffffffffffffff167f8d30d41865a0b811b9545d879520d2dde9f4cc49e4241f486ad9752bc904b56560405160405180910390a250565b601481565b610c30610cae565b600073ffffffffffffffffffffffffffffffffffffffff168173ffffffffffffffffffffffffffffffffffffffff1603610c9f576040517f08c379a0000000000000000000000000000000000000000000000000000000008152600401610c9690611a6c565b60405180910390fd5b610ca881610d2c565b50565b50565b610cb6610df0565b73ffffffffffffffffffffffffffffffffffffffff16610cd4610a0b565b73ffffffffffffffffffffffffffffffffffffffff1614610d2a576040517f08c379a0000000000000000000000000000000000000000000000000000000008152600401610d2190611ad8565b60405180910390fd5b565b60008060009054906101000a900473ffffffffffffffffffffffffffffffffffffffff169050816000806101000a81548173ffffffffffffffffffffffffffffffffffffffff021916908373ffffffffffffffffffffffffffffffffffffffff1602179055508173ffffffffffffffffffffffffffffffffffffffff168173ffffffffffffffffffffffffffffffffffffffff167f8be0079c531659141344cd1fd0a4f28419497f9722a3daafe3b4186f6b6457e060405160405180910390a35050565b600033905090565b508054610e0490611400565b6000825580601f10610e165750610e35565b601f016020900490600052602060002090810190610e349190610e38565b5b50565b5b80821115610e51576000816000905550600101610e39565b5090565b600080fd5b600080fd5b600080fd5b600080fd5b600080fd5b60008083601f840112610e8457610e83610e5f565b5b8235905067ffffffffffffffff811115610ea157610ea0610e64565b5b602083019150836020820283011115610ebd57610ebc610e69565b5b9250929050565b60008083601f840112610eda57610ed9610e5f565b5b8235905067ffffffffffffffff811115610ef757610ef6610e64565b5b602083019150836020820283011115610f1357610f12610e69565b5b9250929050565b60008060008060408587031215610f3457610f33610e55565b5b600085013567ffffffffffffffff811115610f5257610f51610e5a565b5b610f5e87828801610e6e565b9450945050602085013567ffffffffffffffff811115610f8157610f80610e5a565b5b610f8d87828801610ec4565b925092505092959194509250565b600073ffffffffffffffffffffffffffffffffffffffff82169050919050565b6000610fc682610f9b565b9050919050565b610fd681610fbb565b8114610fe157600080fd5b50565b600081359050610ff381610fcd565b92915050565b60008083601f84011261100f5761100e610e5f565b5b8235905067ffffffffffffffff81111561102c5761102b610e64565b5b60208301915083600182028301111561104857611047610e69565b5b9250929050565b60008060006040848603121561106857611067610e55565b5b600061107686828701610fe4565b935050602084013567ffffffffffffffff81111561109757611096610e5a565b5b6110a386828701610ff9565b92509250509250925092565b6000602082840312156110c5576110c4610e55565b5b60006110d384828501610fe4565b91505092915050565b600081519050919050565b600082825260208201905092915050565b60005b838110156111165780820151818401526020810190506110fb565b60008484015250505050565b6000601f19601f8301169050919050565b600061113e826110dc565b61114881856110e7565b93506111588185602086016110f8565b61116181611122565b840191505092915050565b600060208201905081810360008301526111868184611133565b905092915050565b61119781610fbb565b82525050565b60006020820190506111b2600083018461118e565b92915050565b6000819050919050565b6111cb816111b8565b82525050565b60006020820190506111e660008301846111c2565b92915050565b7f41727261792073697a65206e6f7420657175616c000000000000000000000000600082015250565b60006112226014836110e7565b915061122d826111ec565b602082019050919050565b6000602082019050818103600083015261125181611215565b9050919050565b7f42617463682073697a65206d617820323020616c6c6f77656400000000000000600082015250565b600061128e6019836110e7565b915061129982611258565b602082019050919050565b600060208201905081810360008301526112bd81611281565b9050919050565b7f4e487b7100000000000000000000000000000000000000000000000000000000600052603260045260246000fd5b600080fd5b600080fd5b600080fd5b6000808335600160200384360303811261131f5761131e6112f3565b5b80840192508235915067ffffffffffffffff821115611341576113406112f8565b5b60208301925060018202360383131561135d5761135c6112fd565b5b509250929050565b7f436f6e74726163744d616e616765723a20496e76616c69642061646472657373600082015250565b600061139b6020836110e7565b91506113a682611365565b602082019050919050565b600060208201905081810360008301526113ca8161138e565b9050919050565b7f4e487b7100000000000000000000000000000000000000000000000000000000600052602260045260246000fd5b6000600282049050600182168061141857607f821691505b60208210810361142b5761142a6113d1565b5b50919050565b7f436f6e747261637420616c726561647920657869737473000000000000000000600082015250565b60006114676017836110e7565b915061147282611431565b602082019050919050565b600060208201905081810360008301526114968161145a565b9050919050565b600082905092915050565b7f4e487b7100000000000000000000000000000000000000000000000000000000600052604160045260246000fd5b60008190508160005260206000209050919050565b60006020601f8301049050919050565b600082821b905092915050565b6000600883026115397fffffffffffffffffffffffffffffffffffffffffffffffffffffffffffffffff826114fc565b61154386836114fc565b95508019841693508086168417925050509392505050565b6000819050919050565b600061158061157b611576846111b8565b61155b565b6111b8565b9050919050565b6000819050919050565b61159a83611565565b6115ae6115a682611587565b848454611509565b825550505050565b600090565b6115c36115b6565b6115ce818484611591565b505050565b5b818110156115f2576115e76000826115bb565b6001810190506115d4565b5050565b601f82111561163757611608816114d7565b611611846114ec565b81016020851015611620578190505b61163461162c856114ec565b8301826115d3565b50505b505050565b600082821c905092915050565b600061165a6000198460080261163c565b1980831691505092915050565b60006116738383611649565b9150826002028217905092915050565b61168d838361149d565b67ffffffffffffffff8111156116a6576116a56114a8565b5b6116b08254611400565b6116bb8282856115f6565b6000601f8311600181146116ea57600084156116d8578287013590505b6116e28582611667565b86555061174a565b601f1984166116f8866114d7565b60005b82811015611720578489013582556001820191506020850194506020810190506116fb565b8683101561173d5784890135611739601f891682611649565b8355505b6001600288020188555050505b50505050505050565b82818337600083830152505050565b600061176e83856110e7565b935061177b838584611753565b61178483611122565b840190509392505050565b600060208201905081810360008301526117aa818486611762565b90509392505050565b7f4e487b7100000000000000000000000000000000000000000000000000000000600052601160045260246000fd5b60006117ed826111b8565b91507fffffffffffffffffffffffffffffffffffffffffffffffffffffffffffffffff820361181f5761181e6117b3565b5b600182019050919050565b7f436f6e747261637420646f6573206e6f74206578697374000000000000000000600082015250565b60006118606017836110e7565b915061186b8261182a565b602082019050919050565b6000602082019050818103600083015261188f81611853565b9050919050565b600081905092915050565b60006118ad8385611896565b93506118ba838584611753565b82840190509392505050565b60006118d38284866118a1565b91508190509392505050565b60008190508160005260206000209050919050565b6000815461190181611400565b61190b8186611896565b94506001821660008114611926576001811461193b5761196e565b60ff198316865281151582028601935061196e565b611944856118df565b60005b8381101561196657815481890152600182019150602081019050611947565b838801955050505b50505092915050565b600061198382846118f4565b915081905092915050565b7f4e6577206465736372697074696f6e206973207468652073616d650000000000600082015250565b60006119c4601b836110e7565b91506119cf8261198e565b602082019050919050565b600060208201905081810360008301526119f3816119b7565b9050919050565b7f4f776e61626c653a206e6577206f776e657220697320746865207a65726f206160008201527f6464726573730000000000000000000000000000000000000000000000000000602082015250565b6000611a566026836110e7565b9150611a61826119fa565b604082019050919050565b60006020820190508181036000830152611a8581611a49565b9050919050565b7f4f776e61626c653a2063616c6c6572206973206e6f7420746865206f776e6572600082015250565b6000611ac26020836110e7565b9150611acd82611a8c565b602082019050919050565b60006020820190508181036000830152611af181611ab5565b905091905056fea26469706673582212206c09cfcdb28af9d0ff9e3e2f3c9e47efba00f493dbb2754788cadd436aa8d22a64736f6c63430008140033","opcodes":"PUSH1 0x80 PUSH1 0x40 MSTORE CALLVALUE DUP1 ISZERO PUSH2 0x10 JUMPI PUSH1 0x0 DUP1 REVERT JUMPDEST POP PUSH2 0x2D PUSH2 0x22 PUSH2 0x4C PUSH1 0x20 SHL PUSH1 0x20 SHR JUMP JUMPDEST PUSH2 0x54 PUSH1 0x20 SHL PUSH1 0x20 SHR JUMP JUMPDEST PUSH2 0x47 PUSH8 0x926368ADB6EFF32 PUSH1 0xC0 SHL PUSH2 0x118 PUSH1 0x20 SHL PUSH1 0x20 SHR JUMP JUMPDEST PUSH2 0x11B JUMP JUMPDEST PUSH1 0x0 CALLER SWAP1 POP SWAP1 JUMP JUMPDEST PUSH1 0x0 DUP1 PUSH1 0x0 SWAP1 SLOAD SWAP1 PUSH2 0x100 EXP SWAP1 DIV PUSH20 0xFFFFFFFFFFFFFFFFFFFFFFFFFFFFFFFFFFFFFFFF AND SWAP1 POP DUP2 PUSH1 0x0 DUP1 PUSH2 0x100 EXP DUP2 SLOAD DUP2 PUSH20 0xFFFFFFFFFFFFFFFFFFFFFFFFFFFFFFFFFFFFFFFF MUL NOT AND SWAP1 DUP4 PUSH20 0xFFFFFFFFFFFFFFFFFFFFFFFFFFFFFFFFFFFFFFFF AND MUL OR SWAP1 SSTORE POP DUP2 PUSH20 0xFFFFFFFFFFFFFFFFFFFFFFFFFFFFFFFFFFFFFFFF AND DUP2 PUSH20 0xFFFFFFFFFFFFFFFFFFFFFFFFFFFFFFFFFFFFFFFF AND PUSH32 0x8BE0079C531659141344CD1FD0A4F28419497F9722A3DAAFE3B4186F6B6457E0 PUSH1 0x40 MLOAD PUSH1 0x40 MLOAD DUP1 SWAP2 SUB SWAP1 LOG3 POP POP JUMP JUMPDEST POP JUMP JUMPDEST PUSH2 0x1B2E DUP1 PUSH3 0x12B PUSH1 0x0 CODECOPY PUSH1 0x0 RETURN INVALID PUSH1 0x80 PUSH1 0x40 MSTORE CALLVALUE DUP1 ISZERO PUSH2 0x10 JUMPI PUSH1 0x0 DUP1 REVERT JUMPDEST POP PUSH1 0x4 CALLDATASIZE LT PUSH2 0x88 JUMPI PUSH1 0x0 CALLDATALOAD PUSH1 0xE0 SHR DUP1 PUSH4 0x8DA5CB5B GT PUSH2 0x5B JUMPI DUP1 PUSH4 0x8DA5CB5B EQ PUSH2 0xFF JUMPI DUP1 PUSH4 0xC375C2EF EQ PUSH2 0x11D JUMPI DUP1 PUSH4 0xCFDBF254 EQ PUSH2 0x139 JUMPI DUP1 PUSH4 0xF2FDE38B EQ PUSH2 0x157 JUMPI PUSH2 0x88 JUMP JUMPDEST DUP1 PUSH4 0x37809B24 EQ PUSH2 0x8D JUMPI DUP1 PUSH4 0x5AFE435F EQ PUSH2 0xA9 JUMPI DUP1 PUSH4 0x69DC9FF3 EQ PUSH2 0xC5 JUMPI DUP1 PUSH4 0x715018A6 EQ PUSH2 0xF5 JUMPI JUMPDEST PUSH1 0x0 DUP1 REVERT JUMPDEST PUSH2 0xA7 PUSH1 0x4 DUP1 CALLDATASIZE SUB DUP2 ADD SWAP1 PUSH2 0xA2 SWAP2 SWAP1 PUSH2 0xF1A JUMP JUMPDEST PUSH2 0x173 JUMP JUMPDEST STOP JUMPDEST PUSH2 0xC3 PUSH1 0x4 DUP1 CALLDATASIZE SUB DUP2 ADD SWAP1 PUSH2 0xBE SWAP2 SWAP1 PUSH2 0x104F JUMP JUMPDEST PUSH2 0x659 JUMP JUMPDEST STOP JUMPDEST PUSH2 0xDF PUSH1 0x4 DUP1 CALLDATASIZE SUB DUP2 ADD SWAP1 PUSH2 0xDA SWAP2 SWAP1 PUSH2 0x10AF JUMP JUMPDEST PUSH2 0x957 JUMP JUMPDEST PUSH1 0x40 MLOAD PUSH2 0xEC SWAP2 SWAP1 PUSH2 0x116C JUMP JUMPDEST PUSH1 0x40 MLOAD DUP1 SWAP2 SUB SWAP1 RETURN JUMPDEST PUSH2 0xFD PUSH2 0x9F7 JUMP JUMPDEST STOP JUMPDEST PUSH2 0x107 PUSH2 0xA0B JUMP JUMPDEST PUSH1 0x40 MLOAD PUSH2 0x114 SWAP2 SWAP1 PUSH2 0x119D JUMP JUMPDEST PUSH1 0x40 MLOAD DUP1 SWAP2 SUB SWAP1 RETURN JUMPDEST PUSH2 0x137 PUSH1 0x4 DUP1 CALLDATASIZE SUB DUP2 ADD SWAP1 PUSH2 0x132 SWAP2 SWAP1 PUSH2 0x10AF JUMP JUMPDEST PUSH2 0xA34 JUMP JUMPDEST STOP JUMPDEST PUSH2 0x141 PUSH2 0xC23 JUMP JUMPDEST PUSH1 0x40 MLOAD PUSH2 0x14E SWAP2 SWAP1 PUSH2 0x11D1 JUMP JUMPDEST PUSH1 0x40 MLOAD DUP1 SWAP2 SUB SWAP1 RETURN JUMPDEST PUSH2 0x171 PUSH1 0x4 DUP1 CALLDATASIZE SUB DUP2 ADD SWAP1 PUSH2 0x16C SWAP2 SWAP1 PUSH2 0x10AF JUMP JUMPDEST PUSH2 0xC28 JUMP JUMPDEST STOP JUMPDEST PUSH2 0x187 PUSH8 0xC4627F4A5AB8DCBB PUSH1 0xC0 SHL PUSH2 0xCAB JUMP JUMPDEST PUSH2 0x18F PUSH2 0xCAE JUMP JUMPDEST PUSH2 0x1A3 PUSH8 0xE84AC1C8C8B180D3 PUSH1 0xC0 SHL PUSH2 0xCAB JUMP JUMPDEST PUSH2 0x1B7 PUSH8 0x9A14060DA9547F16 PUSH1 0xC0 SHL PUSH2 0xCAB JUMP JUMPDEST PUSH2 0x1CB PUSH8 0xD0E463AD0C26EE2E PUSH1 0xC0 SHL PUSH2 0xCAB JUMP JUMPDEST PUSH2 0x1DF PUSH8 0x5CE55EE282F62721 PUSH1 0xC0 SHL PUSH2 0xCAB JUMP JUMPDEST PUSH2 0x1F3 PUSH8 0xB1A72015E8D4279D PUSH1 0xC0 SHL PUSH2 0xCAB JUMP JUMPDEST DUP2 DUP2 SWAP1 POP DUP5 DUP5 SWAP1 POP EQ PUSH2 0x23B JUMPI PUSH1 0x40 MLOAD PUSH32 0x8C379A000000000000000000000000000000000000000000000000000000000 DUP2 MSTORE PUSH1 0x4 ADD PUSH2 0x232 SWAP1 PUSH2 0x1238 JUMP JUMPDEST PUSH1 0x40 MLOAD DUP1 SWAP2 SUB SWAP1 REVERT JUMPDEST PUSH2 0x24F PUSH8 0x5086497EB927A276 PUSH1 0xC0 SHL PUSH2 0xCAB JUMP JUMPDEST PUSH2 0x263 PUSH8 0x4D8FC7CE0BE79289 PUSH1 0xC0 SHL PUSH2 0xCAB JUMP JUMPDEST PUSH2 0x277 PUSH8 0xC42CE77FA305774A PUSH1 0xC0 SHL PUSH2 0xCAB JUMP JUMPDEST PUSH2 0x28B PUSH8 0xB7C3A19B635FCCB1 PUSH1 0xC0 SHL PUSH2 0xCAB JUMP JUMPDEST PUSH1 0x14 DUP5 DUP5 SWAP1 POP GT ISZERO PUSH2 0x2D2 JUMPI PUSH1 0x40 MLOAD PUSH32 0x8C379A000000000000000000000000000000000000000000000000000000000 DUP2 MSTORE PUSH1 0x4 ADD PUSH2 0x2C9 SWAP1 PUSH2 0x12A4 JUMP JUMPDEST PUSH1 0x40 MLOAD DUP1 SWAP2 SUB SWAP1 REVERT JUMPDEST PUSH2 0x2E6 PUSH8 0xD8C73FF7E8E93EE7 PUSH1 0xC0 SHL PUSH2 0xCAB JUMP JUMPDEST PUSH2 0x2FA PUSH8 0x17560685FFBA1F1 PUSH1 0xC0 SHL PUSH2 0xCAB JUMP JUMPDEST PUSH2 0x30E PUSH8 0xC8F8613C5FA2F21 PUSH1 0xC0 SHL PUSH2 0xCAB JUMP JUMPDEST PUSH1 0x0 JUMPDEST DUP5 DUP5 SWAP1 POP DUP2 LT ISZERO PUSH2 0x652 JUMPI PUSH2 0x330 PUSH8 0xDC0A8E8CAB6644B8 PUSH1 0xC0 SHL PUSH2 0xCAB JUMP JUMPDEST PUSH2 0x344 PUSH8 0x410FACE3ABD9A5C6 PUSH1 0xC0 SHL PUSH2 0xCAB JUMP JUMPDEST PUSH1 0x0 DUP6 DUP6 DUP4 DUP2 DUP2 LT PUSH2 0x359 JUMPI PUSH2 0x358 PUSH2 0x12C4 JUMP JUMPDEST JUMPDEST SWAP1 POP PUSH1 0x20 MUL ADD PUSH1 0x20 DUP2 ADD SWAP1 PUSH2 0x36E SWAP2 SWAP1 PUSH2 0x10AF JUMP JUMPDEST SWAP1 POP PUSH2 0x384 PUSH8 0xEB47B982860FBE77 PUSH1 0xC0 SHL PUSH2 0xCAB JUMP JUMPDEST PUSH2 0x398 PUSH8 0x66947F0B8B5F58E2 PUSH1 0xC0 SHL PUSH2 0xCAB JUMP JUMPDEST CALLDATASIZE PUSH1 0x0 DUP6 DUP6 DUP6 DUP2 DUP2 LT PUSH2 0x3AE JUMPI PUSH2 0x3AD PUSH2 0x12C4 JUMP JUMPDEST JUMPDEST SWAP1 POP PUSH1 0x20 MUL DUP2 ADD SWAP1 PUSH2 0x3C0 SWAP2 SWAP1 PUSH2 0x1302 JUMP JUMPDEST SWAP2 POP SWAP2 POP PUSH2 0x3D8 PUSH8 0x393EA1A3D9B0E00B PUSH1 0xC0 SHL PUSH2 0xCAB JUMP JUMPDEST PUSH2 0x3EC PUSH8 0xE9D2E769BAB9C950 PUSH1 0xC0 SHL PUSH2 0xCAB JUMP JUMPDEST PUSH2 0x400 PUSH8 0xBF8140637C415E44 PUSH1 0xC0 SHL PUSH2 0xCAB JUMP JUMPDEST PUSH1 0x0 PUSH20 0xFFFFFFFFFFFFFFFFFFFFFFFFFFFFFFFFFFFFFFFF AND DUP4 PUSH20 0xFFFFFFFFFFFFFFFFFFFFFFFFFFFFFFFFFFFFFFFF AND SUB PUSH2 0x46F JUMPI PUSH1 0x40 MLOAD PUSH32 0x8C379A000000000000000000000000000000000000000000000000000000000 DUP2 MSTORE PUSH1 0x4 ADD PUSH2 0x466 SWAP1 PUSH2 0x13B1 JUMP JUMPDEST PUSH1 0x40 MLOAD DUP1 SWAP2 SUB SWAP1 REVERT JUMPDEST PUSH2 0x483 PUSH8 0x9F34D30013321D35 PUSH1 0xC0 SHL PUSH2 0xCAB JUMP JUMPDEST PUSH2 0x497 PUSH8 0xAA583E18380DF833 PUSH1 0xC0 SHL PUSH2 0xCAB JUMP JUMPDEST PUSH2 0x4AB PUSH8 0xAB846B3E7C4FB7F2 PUSH1 0xC0 SHL PUSH2 0xCAB JUMP JUMPDEST PUSH2 0x4BF PUSH8 0x8CB6EDA87C139FCA PUSH1 0xC0 SHL PUSH2 0xCAB JUMP JUMPDEST PUSH1 0x0 PUSH1 0x1 PUSH1 0x0 DUP6 PUSH20 0xFFFFFFFFFFFFFFFFFFFFFFFFFFFFFFFFFFFFFFFF AND PUSH20 0xFFFFFFFFFFFFFFFFFFFFFFFFFFFFFFFFFFFFFFFF AND DUP2 MSTORE PUSH1 0x20 ADD SWAP1 DUP2 MSTORE PUSH1 0x20 ADD PUSH1 0x0 KECCAK256 DUP1 SLOAD PUSH2 0x50B SWAP1 PUSH2 0x1400 JUMP JUMPDEST SWAP1 POP EQ PUSH2 0x54D JUMPI PUSH1 0x40 MLOAD PUSH32 0x8C379A000000000000000000000000000000000000000000000000000000000 DUP2 MSTORE PUSH1 0x4 ADD PUSH2 0x544 SWAP1 PUSH2 0x147D JUMP JUMPDEST PUSH1 0x40 MLOAD DUP1 SWAP2 SUB SWAP1 REVERT JUMPDEST PUSH2 0x561 PUSH8 0x17D154CCD32C4825 PUSH1 0xC0 SHL PUSH2 0xCAB JUMP JUMPDEST PUSH2 0x575 PUSH8 0xF2C401BADCDD537F PUSH1 0xC0 SHL PUSH2 0xCAB JUMP JUMPDEST DUP2 DUP2 PUSH1 0x1 PUSH1 0x0 DUP7 PUSH20 0xFFFFFFFFFFFFFFFFFFFFFFFFFFFFFFFFFFFFFFFF AND PUSH20 0xFFFFFFFFFFFFFFFFFFFFFFFFFFFFFFFFFFFFFFFF AND DUP2 MSTORE PUSH1 0x20 ADD SWAP1 DUP2 MSTORE PUSH1 0x20 ADD PUSH1 0x0 KECCAK256 SWAP2 DUP3 PUSH2 0x5C3 SWAP3 SWAP2 SWAP1 PUSH2 0x1683 JUMP JUMPDEST POP PUSH2 0x5D8 PUSH8 0x95BA663C0AB05744 PUSH1 0xC0 SHL PUSH2 0xCAB JUMP JUMPDEST PUSH2 0x5EC PUSH8 0x75C1535189944421 PUSH1 0xC0 SHL PUSH2 0xCAB JUMP JUMPDEST DUP3 PUSH20 0xFFFFFFFFFFFFFFFFFFFFFFFFFFFFFFFFFFFFFFFF AND PUSH32 0xCCDD6D86E4B322ABAA06BFF8C608DD15838F4159CC081C9C66A50FEC320F38A7 DUP4 DUP4 PUSH1 0x40 MLOAD PUSH2 0x634 SWAP3 SWAP2 SWAP1 PUSH2 0x178F JUMP JUMPDEST PUSH1 0x40 MLOAD DUP1 SWAP2 SUB SWAP1 LOG2 POP POP POP DUP1 DUP1 PUSH2 0x64A SWAP1 PUSH2 0x17E2 JUMP JUMPDEST SWAP2 POP POP PUSH2 0x311 JUMP JUMPDEST POP POP POP POP POP JUMP JUMPDEST PUSH2 0x66D PUSH8 0xC7A0864630F9D9D7 PUSH1 0xC0 SHL PUSH2 0xCAB JUMP JUMPDEST PUSH2 0x675 PUSH2 0xCAE JUMP JUMPDEST PUSH2 0x689 PUSH8 0x6270B1C088E4426B PUSH1 0xC0 SHL PUSH2 0xCAB JUMP JUMPDEST PUSH2 0x69D PUSH8 0x56A583B7C63FED94 PUSH1 0xC0 SHL PUSH2 0xCAB JUMP JUMPDEST PUSH2 0x6B1 PUSH8 0x606DC94A13F99F87 PUSH1 0xC0 SHL PUSH2 0xCAB JUMP JUMPDEST PUSH2 0x6C5 PUSH8 0xAF10BC2AFCCB6C42 PUSH1 0xC0 SHL PUSH2 0xCAB JUMP JUMPDEST PUSH2 0x6D9 PUSH8 0x7ACCAE29C3A282CD PUSH1 0xC0 SHL PUSH2 0xCAB JUMP JUMPDEST PUSH1 0x0 PUSH1 0x1 PUSH1 0x0 DUP6 PUSH20 0xFFFFFFFFFFFFFFFFFFFFFFFFFFFFFFFFFFFFFFFF AND PUSH20 0xFFFFFFFFFFFFFFFFFFFFFFFFFFFFFFFFFFFFFFFF AND DUP2 MSTORE PUSH1 0x20 ADD SWAP1 DUP2 MSTORE PUSH1 0x20 ADD PUSH1 0x0 KECCAK256 DUP1 SLOAD PUSH2 0x725 SWAP1 PUSH2 0x1400 JUMP JUMPDEST SWAP1 POP GT PUSH2 0x767 JUMPI PUSH1 0x40 MLOAD PUSH32 0x8C379A000000000000000000000000000000000000000000000000000000000 DUP2 MSTORE PUSH1 0x4 ADD PUSH2 0x75E SWAP1 PUSH2 0x1876 JUMP JUMPDEST PUSH1 0x40 MLOAD DUP1 SWAP2 SUB SWAP1 REVERT JUMPDEST PUSH2 0x77B PUSH8 0x969F993F61D17DE6 PUSH1 0xC0 SHL PUSH2 0xCAB JUMP JUMPDEST PUSH2 0x78F PUSH8 0x8FBEFA1D60427AED PUSH1 0xC0 SHL PUSH2 0xCAB JUMP JUMPDEST PUSH2 0x7A3 PUSH8 0xDE532D291BD6ED91 PUSH1 0xC0 SHL PUSH2 0xCAB JUMP JUMPDEST PUSH2 0x7B7 PUSH8 0x94D65860F4CEF780 PUSH1 0xC0 SHL PUSH2 0xCAB JUMP JUMPDEST DUP2 DUP2 PUSH1 0x40 MLOAD PUSH2 0x7C7 SWAP3 SWAP2 SWAP1 PUSH2 0x18C6 JUMP JUMPDEST PUSH1 0x40 MLOAD DUP1 SWAP2 SUB SWAP1 KECCAK256 PUSH1 0x1 PUSH1 0x0 DUP6 PUSH20 0xFFFFFFFFFFFFFFFFFFFFFFFFFFFFFFFFFFFFFFFF AND PUSH20 0xFFFFFFFFFFFFFFFFFFFFFFFFFFFFFFFFFFFFFFFF AND DUP2 MSTORE PUSH1 0x20 ADD SWAP1 DUP2 MSTORE PUSH1 0x20 ADD PUSH1 0x0 KECCAK256 PUSH1 0x40 MLOAD PUSH2 0x81B SWAP2 SWAP1 PUSH2 0x1977 JUMP JUMPDEST PUSH1 0x40 MLOAD DUP1 SWAP2 SUB SWAP1 KECCAK256 SUB PUSH2 0x863 JUMPI PUSH1 0x40 MLOAD PUSH32 0x8C379A000000000000000000000000000000000000000000000000000000000 DUP2 MSTORE PUSH1 0x4 ADD PUSH2 0x85A SWAP1 PUSH2 0x19DA JUMP JUMPDEST PUSH1 0x40 MLOAD DUP1 SWAP2 SUB SWAP1 REVERT JUMPDEST PUSH2 0x877 PUSH8 0xCC2DF581C256F31A PUSH1 0xC0 SHL PUSH2 0xCAB JUMP JUMPDEST PUSH2 0x88B PUSH8 0x66E179212B033899 PUSH1 0xC0 SHL PUSH2 0xCAB JUMP JUMPDEST DUP2 DUP2 PUSH1 0x1 PUSH1 0x0 DUP7 PUSH20 0xFFFFFFFFFFFFFFFFFFFFFFFFFFFFFFFFFFFFFFFF AND PUSH20 0xFFFFFFFFFFFFFFFFFFFFFFFFFFFFFFFFFFFFFFFF AND DUP2 MSTORE PUSH1 0x20 ADD SWAP1 DUP2 MSTORE PUSH1 0x20 ADD PUSH1 0x0 KECCAK256 SWAP2 DUP3 PUSH2 0x8D9 SWAP3 SWAP2 SWAP1 PUSH2 0x1683 JUMP JUMPDEST POP PUSH2 0x8EE PUSH8 0xDEED78FB621148E7 PUSH1 0xC0 SHL PUSH2 0xCAB JUMP JUMPDEST PUSH2 0x902 PUSH8 0xB800F73E6D286956 PUSH1 0xC0 SHL PUSH2 0xCAB JUMP JUMPDEST DUP3 PUSH20 0xFFFFFFFFFFFFFFFFFFFFFFFFFFFFFFFFFFFFFFFF AND PUSH32 0xB52CC2C9728D9A3773C00A19A9C543F53D1E8BEFCDC0135D047A86E916FA7F06 DUP4 DUP4 PUSH1 0x40 MLOAD PUSH2 0x94A SWAP3 SWAP2 SWAP1 PUSH2 0x178F JUMP JUMPDEST PUSH1 0x40 MLOAD DUP1 SWAP2 SUB SWAP1 LOG2 POP POP POP JUMP JUMPDEST PUSH1 0x1 PUSH1 0x20 MSTORE DUP1 PUSH1 0x0 MSTORE PUSH1 0x40 PUSH1 0x0 KECCAK256 PUSH1 0x0 SWAP2 POP SWAP1 POP DUP1 SLOAD PUSH2 0x976 SWAP1 PUSH2 0x1400 JUMP JUMPDEST DUP1 PUSH1 0x1F ADD PUSH1 0x20 DUP1 SWAP2 DIV MUL PUSH1 0x20 ADD PUSH1 0x40 MLOAD SWAP1 DUP2 ADD PUSH1 0x40 MSTORE DUP1 SWAP3 SWAP2 SWAP1 DUP2 DUP2 MSTORE PUSH1 0x20 ADD DUP3 DUP1 SLOAD PUSH2 0x9A2 SWAP1 PUSH2 0x1400 JUMP JUMPDEST DUP1 ISZERO PUSH2 0x9EF JUMPI DUP1 PUSH1 0x1F LT PUSH2 0x9C4 JUMPI PUSH2 0x100 DUP1 DUP4 SLOAD DIV MUL DUP4 MSTORE SWAP2 PUSH1 0x20 ADD SWAP2 PUSH2 0x9EF JUMP JUMPDEST DUP3 ADD SWAP2 SWAP1 PUSH1 0x0 MSTORE PUSH1 0x20 PUSH1 0x0 KECCAK256 SWAP1 JUMPDEST DUP2 SLOAD DUP2 MSTORE SWAP1 PUSH1 0x1 ADD SWAP1 PUSH1 0x20 ADD DUP1 DUP4 GT PUSH2 0x9D2 JUMPI DUP3 SWAP1 SUB PUSH1 0x1F AND DUP3 ADD SWAP2 JUMPDEST POP POP POP POP POP DUP2 JUMP JUMPDEST PUSH2 0x9FF PUSH2 0xCAE JUMP JUMPDEST PUSH2 0xA09 PUSH1 0x0 PUSH2 0xD2C JUMP JUMPDEST JUMP JUMPDEST PUSH1 0x0 DUP1 PUSH1 0x0 SWAP1 SLOAD SWAP1 PUSH2 0x100 EXP SWAP1 DIV PUSH20 0xFFFFFFFFFFFFFFFFFFFFFFFFFFFFFFFFFFFFFFFF AND SWAP1 POP SWAP1 JUMP JUMPDEST PUSH2 0xA48 PUSH8 0xA28D127582B16449 PUSH1 0xC0 SHL PUSH2 0xCAB JUMP JUMPDEST PUSH2 0xA50 PUSH2 0xCAE JUMP JUMPDEST PUSH2 0xA64 PUSH8 0xA31D21BA15DF9F1E PUSH1 0xC0 SHL PUSH2 0xCAB JUMP JUMPDEST PUSH2 0xA78 PUSH8 0x8370184BDE8AF0FA PUSH1 0xC0 SHL PUSH2 0xCAB JUMP JUMPDEST PUSH2 0xA8C PUSH8 0x841ADBA70D1EC09 PUSH1 0xC0 SHL PUSH2 0xCAB JUMP JUMPDEST PUSH2 0xAA0 PUSH8 0x2DE47B5CAA70B9D PUSH1 0xC0 SHL PUSH2 0xCAB JUMP JUMPDEST PUSH2 0xAB4 PUSH8 0xADA2246A34DCE035 PUSH1 0xC0 SHL PUSH2 0xCAB JUMP JUMPDEST PUSH1 0x0 PUSH1 0x1 PUSH1 0x0 DUP4 PUSH20 0xFFFFFFFFFFFFFFFFFFFFFFFFFFFFFFFFFFFFFFFF AND PUSH20 0xFFFFFFFFFFFFFFFFFFFFFFFFFFFFFFFFFFFFFFFF AND DUP2 MSTORE PUSH1 0x20 ADD SWAP1 DUP2 MSTORE PUSH1 0x20 ADD PUSH1 0x0 KECCAK256 DUP1 SLOAD PUSH2 0xB00 SWAP1 PUSH2 0x1400 JUMP JUMPDEST SWAP1 POP GT PUSH2 0xB42 JUMPI PUSH1 0x40 MLOAD PUSH32 0x8C379A000000000000000000000000000000000000000000000000000000000 DUP2 MSTORE PUSH1 0x4 ADD PUSH2 0xB39 SWAP1 PUSH2 0x1876 JUMP JUMPDEST PUSH1 0x40 MLOAD DUP1 SWAP2 SUB SWAP1 REVERT JUMPDEST PUSH2 0xB56 PUSH8 0xAF9D907D6ADCF056 PUSH1 0xC0 SHL PUSH2 0xCAB JUMP JUMPDEST PUSH2 0xB6A PUSH8 0xB43CF58F94365C42 PUSH1 0xC0 SHL PUSH2 0xCAB JUMP JUMPDEST PUSH1 0x1 PUSH1 0x0 DUP3 PUSH20 0xFFFFFFFFFFFFFFFFFFFFFFFFFFFFFFFFFFFFFFFF AND PUSH20 0xFFFFFFFFFFFFFFFFFFFFFFFFFFFFFFFFFFFFFFFF AND DUP2 MSTORE PUSH1 0x20 ADD SWAP1 DUP2 MSTORE PUSH1 0x20 ADD PUSH1 0x0 KECCAK256 PUSH1 0x0 PUSH2 0xBB5 SWAP2 SWAP1 PUSH2 0xDF8 JUMP JUMPDEST PUSH2 0xBC9 PUSH8 0x7670B3D1BBEC824E PUSH1 0xC0 SHL PUSH2 0xCAB JUMP JUMPDEST PUSH2 0xBDD PUSH8 0x44C3E877627B3DB2 PUSH1 0xC0 SHL PUSH2 0xCAB JUMP JUMPDEST DUP1 PUSH20 0xFFFFFFFFFFFFFFFFFFFFFFFFFFFFFFFFFFFFFFFF AND PUSH32 0x8D30D41865A0B811B9545D879520D2DDE9F4CC49E4241F486AD9752BC904B565 PUSH1 0x40 MLOAD PUSH1 0x40 MLOAD DUP1 SWAP2 SUB SWAP1 LOG2 POP JUMP JUMPDEST PUSH1 0x14 DUP2 JUMP JUMPDEST PUSH2 0xC30 PUSH2 0xCAE JUMP JUMPDEST PUSH1 0x0 PUSH20 0xFFFFFFFFFFFFFFFFFFFFFFFFFFFFFFFFFFFFFFFF AND DUP2 PUSH20 0xFFFFFFFFFFFFFFFFFFFFFFFFFFFFFFFFFFFFFFFF AND SUB PUSH2 0xC9F JUMPI PUSH1 0x40 MLOAD PUSH32 0x8C379A000000000000000000000000000000000000000000000000000000000 DUP2 MSTORE PUSH1 0x4 ADD PUSH2 0xC96 SWAP1 PUSH2 0x1A6C JUMP JUMPDEST PUSH1 0x40 MLOAD DUP1 SWAP2 SUB SWAP1 REVERT JUMPDEST PUSH2 0xCA8 DUP2 PUSH2 0xD2C JUMP JUMPDEST POP JUMP JUMPDEST POP JUMP JUMPDEST PUSH2 0xCB6 PUSH2 0xDF0 JUMP JUMPDEST PUSH20 0xFFFFFFFFFFFFFFFFFFFFFFFFFFFFFFFFFFFFFFFF AND PUSH2 0xCD4 PUSH2 0xA0B JUMP JUMPDEST PUSH20 0xFFFFFFFFFFFFFFFFFFFFFFFFFFFFFFFFFFFFFFFF AND EQ PUSH2 0xD2A JUMPI PUSH1 0x40 MLOAD PUSH32 0x8C379A000000000000000000000000000000000000000000000000000000000 DUP2 MSTORE PUSH1 0x4 ADD PUSH2 0xD21 SWAP1 PUSH2 0x1AD8 JUMP JUMPDEST PUSH1 0x40 MLOAD DUP1 SWAP2 SUB SWAP1 REVERT JUMPDEST JUMP JUMPDEST PUSH1 0x0 DUP1 PUSH1 0x0 SWAP1 SLOAD SWAP1 PUSH2 0x100 EXP SWAP1 DIV PUSH20 0xFFFFFFFFFFFFFFFFFFFFFFFFFFFFFFFFFFFFFFFF AND SWAP1 POP DUP2 PUSH1 0x0 DUP1 PUSH2 0x100 EXP DUP2 SLOAD DUP2 PUSH20 0xFFFFFFFFFFFFFFFFFFFFFFFFFFFFFFFFFFFFFFFF MUL NOT AND SWAP1 DUP4 PUSH20 0xFFFFFFFFFFFFFFFFFFFFFFFFFFFFFFFFFFFFFFFF AND MUL OR SWAP1 SSTORE POP DUP2 PUSH20 0xFFFFFFFFFFFFFFFFFFFFFFFFFFFFFFFFFFFFFFFF AND DUP2 PUSH20 0xFFFFFFFFFFFFFFFFFFFFFFFFFFFFFFFFFFFFFFFF AND PUSH32 0x8BE0079C531659141344CD1FD0A4F28419497F9722A3DAAFE3B4186F6B6457E0 PUSH1 0x40 MLOAD PUSH1 0x40 MLOAD DUP1 SWAP2 SUB SWAP1 LOG3 POP POP JUMP JUMPDEST PUSH1 0x0 CALLER SWAP1 POP SWAP1 JUMP JUMPDEST POP DUP1 SLOAD PUSH2 0xE04 SWAP1 PUSH2 0x1400 JUMP JUMPDEST PUSH1 0x0 DUP3 SSTORE DUP1 PUSH1 0x1F LT PUSH2 0xE16 JUMPI POP PUSH2 0xE35 JUMP JUMPDEST PUSH1 0x1F ADD PUSH1 0x20 SWAP1 DIV SWAP1 PUSH1 0x0 MSTORE PUSH1 0x20 PUSH1 0x0 KECCAK256 SWAP1 DUP2 ADD SWAP1 PUSH2 0xE34 SWAP2 SWAP1 PUSH2 0xE38 JUMP JUMPDEST JUMPDEST POP JUMP JUMPDEST JUMPDEST DUP1 DUP3 GT ISZERO PUSH2 0xE51 JUMPI PUSH1 0x0 DUP2 PUSH1 0x0 SWAP1 SSTORE POP PUSH1 0x1 ADD PUSH2 0xE39 JUMP JUMPDEST POP SWAP1 JUMP JUMPDEST PUSH1 0x0 DUP1 REVERT JUMPDEST PUSH1 0x0 DUP1 REVERT JUMPDEST PUSH1 0x0 DUP1 REVERT JUMPDEST PUSH1 0x0 DUP1 REVERT JUMPDEST PUSH1 0x0 DUP1 REVERT JUMPDEST PUSH1 0x0 DUP1 DUP4 PUSH1 0x1F DUP5 ADD SLT PUSH2 0xE84 JUMPI PUSH2 0xE83 PUSH2 0xE5F JUMP JUMPDEST JUMPDEST DUP3 CALLDATALOAD SWAP1 POP PUSH8 0xFFFFFFFFFFFFFFFF DUP2 GT ISZERO PUSH2 0xEA1 JUMPI PUSH2 0xEA0 PUSH2 0xE64 JUMP JUMPDEST JUMPDEST PUSH1 0x20 DUP4 ADD SWAP2 POP DUP4 PUSH1 0x20 DUP3 MUL DUP4 ADD GT ISZERO PUSH2 0xEBD JUMPI PUSH2 0xEBC PUSH2 0xE69 JUMP JUMPDEST JUMPDEST SWAP3 POP SWAP3 SWAP1 POP JUMP JUMPDEST PUSH1 0x0 DUP1 DUP4 PUSH1 0x1F DUP5 ADD SLT PUSH2 0xEDA JUMPI PUSH2 0xED9 PUSH2 0xE5F JUMP JUMPDEST JUMPDEST DUP3 CALLDATALOAD SWAP1 POP PUSH8 0xFFFFFFFFFFFFFFFF DUP2 GT ISZERO PUSH2 0xEF7 JUMPI PUSH2 0xEF6 PUSH2 0xE64 JUMP JUMPDEST JUMPDEST PUSH1 0x20 DUP4 ADD SWAP2 POP DUP4 PUSH1 0x20 DUP3 MUL DUP4 ADD GT ISZERO PUSH2 0xF13 JUMPI PUSH2 0xF12 PUSH2 0xE69 JUMP JUMPDEST JUMPDEST SWAP3 POP SWAP3 SWAP1 POP JUMP JUMPDEST PUSH1 0x0 DUP1 PUSH1 0x0 DUP1 PUSH1 0x40 DUP6 DUP8 SUB SLT ISZERO PUSH2 0xF34 JUMPI PUSH2 0xF33 PUSH2 0xE55 JUMP JUMPDEST JUMPDEST PUSH1 0x0 DUP6 ADD CALLDATALOAD PUSH8 0xFFFFFFFFFFFFFFFF DUP2 GT ISZERO PUSH2 0xF52 JUMPI PUSH2 0xF51 PUSH2 0xE5A JUMP JUMPDEST JUMPDEST PUSH2 0xF5E DUP8 DUP3 DUP9 ADD PUSH2 0xE6E JUMP JUMPDEST SWAP5 POP SWAP5 POP POP PUSH1 0x20 DUP6 ADD CALLDATALOAD PUSH8 0xFFFFFFFFFFFFFFFF DUP2 GT ISZERO PUSH2 0xF81 JUMPI PUSH2 0xF80 PUSH2 0xE5A JUMP JUMPDEST JUMPDEST PUSH2 0xF8D DUP8 DUP3 DUP9 ADD PUSH2 0xEC4 JUMP JUMPDEST SWAP3 POP SWAP3 POP POP SWAP3 SWAP6 SWAP2 SWAP5 POP SWAP3 POP JUMP JUMPDEST PUSH1 0x0 PUSH20 0xFFFFFFFFFFFFFFFFFFFFFFFFFFFFFFFFFFFFFFFF DUP3 AND SWAP1 POP SWAP2 SWAP1 POP JUMP JUMPDEST PUSH1 0x0 PUSH2 0xFC6 DUP3 PUSH2 0xF9B JUMP JUMPDEST SWAP1 POP SWAP2 SWAP1 POP JUMP JUMPDEST PUSH2 0xFD6 DUP2 PUSH2 0xFBB JUMP JUMPDEST DUP2 EQ PUSH2 0xFE1 JUMPI PUSH1 0x0 DUP1 REVERT JUMPDEST POP JUMP JUMPDEST PUSH1 0x0 DUP2 CALLDATALOAD SWAP1 POP PUSH2 0xFF3 DUP2 PUSH2 0xFCD JUMP JUMPDEST SWAP3 SWAP2 POP POP JUMP JUMPDEST PUSH1 0x0 DUP1 DUP4 PUSH1 0x1F DUP5 ADD SLT PUSH2 0x100F JUMPI PUSH2 0x100E PUSH2 0xE5F JUMP JUMPDEST JUMPDEST DUP3 CALLDATALOAD SWAP1 POP PUSH8 0xFFFFFFFFFFFFFFFF DUP2 GT ISZERO PUSH2 0x102C JUMPI PUSH2 0x102B PUSH2 0xE64 JUMP JUMPDEST JUMPDEST PUSH1 0x20 DUP4 ADD SWAP2 POP DUP4 PUSH1 0x1 DUP3 MUL DUP4 ADD GT ISZERO PUSH2 0x1048 JUMPI PUSH2 0x1047 PUSH2 0xE69 JUMP JUMPDEST JUMPDEST SWAP3 POP SWAP3 SWAP1 POP JUMP JUMPDEST PUSH1 0x0 DUP1 PUSH1 0x0 PUSH1 0x40 DUP5 DUP7 SUB SLT ISZERO PUSH2 0x1068 JUMPI PUSH2 0x1067 PUSH2 0xE55 JUMP JUMPDEST JUMPDEST PUSH1 0x0 PUSH2 0x1076 DUP7 DUP3 DUP8 ADD PUSH2 0xFE4 JUMP JUMPDEST SWAP4 POP POP PUSH1 0x20 DUP5 ADD CALLDATALOAD PUSH8 0xFFFFFFFFFFFFFFFF DUP2 GT ISZERO PUSH2 0x1097 JUMPI PUSH2 0x1096 PUSH2 0xE5A JUMP JUMPDEST JUMPDEST PUSH2 0x10A3 DUP7 DUP3 DUP8 ADD PUSH2 0xFF9 JUMP JUMPDEST SWAP3 POP SWAP3 POP POP SWAP3 POP SWAP3 POP SWAP3 JUMP JUMPDEST PUSH1 0x0 PUSH1 0x20 DUP3 DUP5 SUB SLT ISZERO PUSH2 0x10C5 JUMPI PUSH2 0x10C4 PUSH2 0xE55 JUMP JUMPDEST JUMPDEST PUSH1 0x0 PUSH2 0x10D3 DUP5 DUP3 DUP6 ADD PUSH2 0xFE4 JUMP JUMPDEST SWAP2 POP POP SWAP3 SWAP2 POP POP JUMP JUMPDEST PUSH1 0x0 DUP2 MLOAD SWAP1 POP SWAP2 SWAP1 POP JUMP JUMPDEST PUSH1 0x0 DUP3 DUP3 MSTORE PUSH1 0x20 DUP3 ADD SWAP1 POP SWAP3 SWAP2 POP POP JUMP JUMPDEST PUSH1 0x0 JUMPDEST DUP4 DUP2 LT ISZERO PUSH2 0x1116 JUMPI DUP1 DUP3 ADD MLOAD DUP2 DUP5 ADD MSTORE PUSH1 0x20 DUP2 ADD SWAP1 POP PUSH2 0x10FB JUMP JUMPDEST PUSH1 0x0 DUP5 DUP5 ADD MSTORE POP POP POP POP JUMP JUMPDEST PUSH1 0x0 PUSH1 0x1F NOT PUSH1 0x1F DUP4 ADD AND SWAP1 POP SWAP2 SWAP1 POP JUMP JUMPDEST PUSH1 0x0 PUSH2 0x113E DUP3 PUSH2 0x10DC JUMP JUMPDEST PUSH2 0x1148 DUP2 DUP6 PUSH2 0x10E7 JUMP JUMPDEST SWAP4 POP PUSH2 0x1158 DUP2 DUP6 PUSH1 0x20 DUP7 ADD PUSH2 0x10F8 JUMP JUMPDEST PUSH2 0x1161 DUP2 PUSH2 0x1122 JUMP JUMPDEST DUP5 ADD SWAP2 POP POP SWAP3 SWAP2 POP POP JUMP JUMPDEST PUSH1 0x0 PUSH1 0x20 DUP3 ADD SWAP1 POP DUP2 DUP2 SUB PUSH1 0x0 DUP4 ADD MSTORE PUSH2 0x1186 DUP2 DUP5 PUSH2 0x1133 JUMP JUMPDEST SWAP1 POP SWAP3 SWAP2 POP POP JUMP JUMPDEST PUSH2 0x1197 DUP2 PUSH2 0xFBB JUMP JUMPDEST DUP3 MSTORE POP POP JUMP JUMPDEST PUSH1 0x0 PUSH1 0x20 DUP3 ADD SWAP1 POP PUSH2 0x11B2 PUSH1 0x0 DUP4 ADD DUP5 PUSH2 0x118E JUMP JUMPDEST SWAP3 SWAP2 POP POP JUMP JUMPDEST PUSH1 0x0 DUP2 SWAP1 POP SWAP2 SWAP1 POP JUMP JUMPDEST PUSH2 0x11CB DUP2 PUSH2 0x11B8 JUMP JUMPDEST DUP3 MSTORE POP POP JUMP JUMPDEST PUSH1 0x0 PUSH1 0x20 DUP3 ADD SWAP1 POP PUSH2 0x11E6 PUSH1 0x0 DUP4 ADD DUP5 PUSH2 0x11C2 JUMP JUMPDEST SWAP3 SWAP2 POP POP JUMP JUMPDEST PUSH32 0x41727261792073697A65206E6F7420657175616C000000000000000000000000 PUSH1 0x0 DUP3 ADD MSTORE POP JUMP JUMPDEST PUSH1 0x0 PUSH2 0x1222 PUSH1 0x14 DUP4 PUSH2 0x10E7 JUMP JUMPDEST SWAP2 POP PUSH2 0x122D DUP3 PUSH2 0x11EC JUMP JUMPDEST PUSH1 0x20 DUP3 ADD SWAP1 POP SWAP2 SWAP1 POP JUMP JUMPDEST PUSH1 0x0 PUSH1 0x20 DUP3 ADD SWAP1 POP DUP2 DUP2 SUB PUSH1 0x0 DUP4 ADD MSTORE PUSH2 0x1251 DUP2 PUSH2 0x1215 JUMP JUMPDEST SWAP1 POP SWAP2 SWAP1 POP JUMP JUMPDEST PUSH32 0x42617463682073697A65206D617820323020616C6C6F77656400000000000000 PUSH1 0x0 DUP3 ADD MSTORE POP JUMP JUMPDEST PUSH1 0x0 PUSH2 0x128E PUSH1 0x19 DUP4 PUSH2 0x10E7 JUMP JUMPDEST SWAP2 POP PUSH2 0x1299 DUP3 PUSH2 0x1258 JUMP JUMPDEST PUSH1 0x20 DUP3 ADD SWAP1 POP SWAP2 SWAP1 POP JUMP JUMPDEST PUSH1 0x0 PUSH1 0x20 DUP3 ADD SWAP1 POP DUP2 DUP2 SUB PUSH1 0x0 DUP4 ADD MSTORE PUSH2 0x12BD DUP2 PUSH2 0x1281 JUMP JUMPDEST SWAP1 POP SWAP2 SWAP1 POP JUMP JUMPDEST PUSH32 0x4E487B7100000000000000000000000000000000000000000000000000000000 PUSH1 0x0 MSTORE PUSH1 0x32 PUSH1 0x4 MSTORE PUSH1 0x24 PUSH1 0x0 REVERT JUMPDEST PUSH1 0x0 DUP1 REVERT JUMPDEST PUSH1 0x0 DUP1 REVERT JUMPDEST PUSH1 0x0 DUP1 REVERT JUMPDEST PUSH1 0x0 DUP1 DUP4 CALLDATALOAD PUSH1 0x1 PUSH1 0x20 SUB DUP5 CALLDATASIZE SUB SUB DUP2 SLT PUSH2 0x131F JUMPI PUSH2 0x131E PUSH2 0x12F3 JUMP JUMPDEST JUMPDEST DUP1 DUP5 ADD SWAP3 POP DUP3 CALLDATALOAD SWAP2 POP PUSH8 0xFFFFFFFFFFFFFFFF DUP3 GT ISZERO PUSH2 0x1341 JUMPI PUSH2 0x1340 PUSH2 0x12F8 JUMP JUMPDEST JUMPDEST PUSH1 0x20 DUP4 ADD SWAP3 POP PUSH1 0x1 DUP3 MUL CALLDATASIZE SUB DUP4 SGT ISZERO PUSH2 0x135D JUMPI PUSH2 0x135C PUSH2 0x12FD JUMP JUMPDEST JUMPDEST POP SWAP3 POP SWAP3 SWAP1 POP JUMP JUMPDEST PUSH32 0x436F6E74726163744D616E616765723A20496E76616C69642061646472657373 PUSH1 0x0 DUP3 ADD MSTORE POP JUMP JUMPDEST PUSH1 0x0 PUSH2 0x139B PUSH1 0x20 DUP4 PUSH2 0x10E7 JUMP JUMPDEST SWAP2 POP PUSH2 0x13A6 DUP3 PUSH2 0x1365 JUMP JUMPDEST PUSH1 0x20 DUP3 ADD SWAP1 POP SWAP2 SWAP1 POP JUMP JUMPDEST PUSH1 0x0 PUSH1 0x20 DUP3 ADD SWAP1 POP DUP2 DUP2 SUB PUSH1 0x0 DUP4 ADD MSTORE PUSH2 0x13CA DUP2 PUSH2 0x138E JUMP JUMPDEST SWAP1 POP SWAP2 SWAP1 POP JUMP JUMPDEST PUSH32 0x4E487B7100000000000000000000000000000000000000000000000000000000 PUSH1 0x0 MSTORE PUSH1 0x22 PUSH1 0x4 MSTORE PUSH1 0x24 PUSH1 0x0 REVERT JUMPDEST PUSH1 0x0 PUSH1 0x2 DUP3 DIV SWAP1 POP PUSH1 0x1 DUP3 AND DUP1 PUSH2 0x1418 JUMPI PUSH1 0x7F DUP3 AND SWAP2 POP JUMPDEST PUSH1 0x20 DUP3 LT DUP2 SUB PUSH2 0x142B JUMPI PUSH2 0x142A PUSH2 0x13D1 JUMP JUMPDEST JUMPDEST POP SWAP2 SWAP1 POP JUMP JUMPDEST PUSH32 0x436F6E747261637420616C726561647920657869737473000000000000000000 PUSH1 0x0 DUP3 ADD MSTORE POP JUMP JUMPDEST PUSH1 0x0 PUSH2 0x1467 PUSH1 0x17 DUP4 PUSH2 0x10E7 JUMP JUMPDEST SWAP2 POP PUSH2 0x1472 DUP3 PUSH2 0x1431 JUMP JUMPDEST PUSH1 0x20 DUP3 ADD SWAP1 POP SWAP2 SWAP1 POP JUMP JUMPDEST PUSH1 0x0 PUSH1 0x20 DUP3 ADD SWAP1 POP DUP2 DUP2 SUB PUSH1 0x0 DUP4 ADD MSTORE PUSH2 0x1496 DUP2 PUSH2 0x145A JUMP JUMPDEST SWAP1 POP SWAP2 SWAP1 POP JUMP JUMPDEST PUSH1 0x0 DUP3 SWAP1 POP SWAP3 SWAP2 POP POP JUMP JUMPDEST PUSH32 0x4E487B7100000000000000000000000000000000000000000000000000000000 PUSH1 0x0 MSTORE PUSH1 0x41 PUSH1 0x4 MSTORE PUSH1 0x24 PUSH1 0x0 REVERT JUMPDEST PUSH1 0x0 DUP2 SWAP1 POP DUP2 PUSH1 0x0 MSTORE PUSH1 0x20 PUSH1 0x0 KECCAK256 SWAP1 POP SWAP2 SWAP1 POP JUMP JUMPDEST PUSH1 0x0 PUSH1 0x20 PUSH1 0x1F DUP4 ADD DIV SWAP1 POP SWAP2 SWAP1 POP JUMP JUMPDEST PUSH1 0x0 DUP3 DUP3 SHL SWAP1 POP SWAP3 SWAP2 POP POP JUMP JUMPDEST PUSH1 0x0 PUSH1 0x8 DUP4 MUL PUSH2 0x1539 PUSH32 0xFFFFFFFFFFFFFFFFFFFFFFFFFFFFFFFFFFFFFFFFFFFFFFFFFFFFFFFFFFFFFFFF DUP3 PUSH2 0x14FC JUMP JUMPDEST PUSH2 0x1543 DUP7 DUP4 PUSH2 0x14FC JUMP JUMPDEST SWAP6 POP DUP1 NOT DUP5 AND SWAP4 POP DUP1 DUP7 AND DUP5 OR SWAP3 POP POP POP SWAP4 SWAP3 POP POP POP JUMP JUMPDEST PUSH1 0x0 DUP2 SWAP1 POP SWAP2 SWAP1 POP JUMP JUMPDEST PUSH1 0x0 PUSH2 0x1580 PUSH2 0x157B PUSH2 0x1576 DUP5 PUSH2 0x11B8 JUMP JUMPDEST PUSH2 0x155B JUMP JUMPDEST PUSH2 0x11B8 JUMP JUMPDEST SWAP1 POP SWAP2 SWAP1 POP JUMP JUMPDEST PUSH1 0x0 DUP2 SWAP1 POP SWAP2 SWAP1 POP JUMP JUMPDEST PUSH2 0x159A DUP4 PUSH2 0x1565 JUMP JUMPDEST PUSH2 0x15AE PUSH2 0x15A6 DUP3 PUSH2 0x1587 JUMP JUMPDEST DUP5 DUP5 SLOAD PUSH2 0x1509 JUMP JUMPDEST DUP3 SSTORE POP POP POP POP JUMP JUMPDEST PUSH1 0x0 SWAP1 JUMP JUMPDEST PUSH2 0x15C3 PUSH2 0x15B6 JUMP JUMPDEST PUSH2 0x15CE DUP2 DUP5 DUP5 PUSH2 0x1591 JUMP JUMPDEST POP POP POP JUMP JUMPDEST JUMPDEST DUP2 DUP2 LT ISZERO PUSH2 0x15F2 JUMPI PUSH2 0x15E7 PUSH1 0x0 DUP3 PUSH2 0x15BB JUMP JUMPDEST PUSH1 0x1 DUP2 ADD SWAP1 POP PUSH2 0x15D4 JUMP JUMPDEST POP POP JUMP JUMPDEST PUSH1 0x1F DUP3 GT ISZERO PUSH2 0x1637 JUMPI PUSH2 0x1608 DUP2 PUSH2 0x14D7 JUMP JUMPDEST PUSH2 0x1611 DUP5 PUSH2 0x14EC JUMP JUMPDEST DUP2 ADD PUSH1 0x20 DUP6 LT ISZERO PUSH2 0x1620 JUMPI DUP2 SWAP1 POP JUMPDEST PUSH2 0x1634 PUSH2 0x162C DUP6 PUSH2 0x14EC JUMP JUMPDEST DUP4 ADD DUP3 PUSH2 0x15D3 JUMP JUMPDEST POP POP JUMPDEST POP POP POP JUMP JUMPDEST PUSH1 0x0 DUP3 DUP3 SHR SWAP1 POP SWAP3 SWAP2 POP POP JUMP JUMPDEST PUSH1 0x0 PUSH2 0x165A PUSH1 0x0 NOT DUP5 PUSH1 0x8 MUL PUSH2 0x163C JUMP JUMPDEST NOT DUP1 DUP4 AND SWAP2 POP POP SWAP3 SWAP2 POP POP JUMP JUMPDEST PUSH1 0x0 PUSH2 0x1673 DUP4 DUP4 PUSH2 0x1649 JUMP JUMPDEST SWAP2 POP DUP3 PUSH1 0x2 MUL DUP3 OR SWAP1 POP SWAP3 SWAP2 POP POP JUMP JUMPDEST PUSH2 0x168D DUP4 DUP4 PUSH2 0x149D JUMP JUMPDEST PUSH8 0xFFFFFFFFFFFFFFFF DUP2 GT ISZERO PUSH2 0x16A6 JUMPI PUSH2 0x16A5 PUSH2 0x14A8 JUMP JUMPDEST JUMPDEST PUSH2 0x16B0 DUP3 SLOAD PUSH2 0x1400 JUMP JUMPDEST PUSH2 0x16BB DUP3 DUP3 DUP6 PUSH2 0x15F6 JUMP JUMPDEST PUSH1 0x0 PUSH1 0x1F DUP4 GT PUSH1 0x1 DUP2 EQ PUSH2 0x16EA JUMPI PUSH1 0x0 DUP5 ISZERO PUSH2 0x16D8 JUMPI DUP3 DUP8 ADD CALLDATALOAD SWAP1 POP JUMPDEST PUSH2 0x16E2 DUP6 DUP3 PUSH2 0x1667 JUMP JUMPDEST DUP7 SSTORE POP PUSH2 0x174A JUMP JUMPDEST PUSH1 0x1F NOT DUP5 AND PUSH2 0x16F8 DUP7 PUSH2 0x14D7 JUMP JUMPDEST PUSH1 0x0 JUMPDEST DUP3 DUP2 LT ISZERO PUSH2 0x1720 JUMPI DUP5 DUP10 ADD CALLDATALOAD DUP3 SSTORE PUSH1 0x1 DUP3 ADD SWAP2 POP PUSH1 0x20 DUP6 ADD SWAP5 POP PUSH1 0x20 DUP2 ADD SWAP1 POP PUSH2 0x16FB JUMP JUMPDEST DUP7 DUP4 LT ISZERO PUSH2 0x173D JUMPI DUP5 DUP10 ADD CALLDATALOAD PUSH2 0x1739 PUSH1 0x1F DUP10 AND DUP3 PUSH2 0x1649 JUMP JUMPDEST DUP4 SSTORE POP JUMPDEST PUSH1 0x1 PUSH1 0x2 DUP9 MUL ADD DUP9 SSTORE POP POP POP JUMPDEST POP POP POP POP POP POP POP JUMP JUMPDEST DUP3 DUP2 DUP4 CALLDATACOPY PUSH1 0x0 DUP4 DUP4 ADD MSTORE POP POP POP JUMP JUMPDEST PUSH1 0x0 PUSH2 0x176E DUP4 DUP6 PUSH2 0x10E7 JUMP JUMPDEST SWAP4 POP PUSH2 0x177B DUP4 DUP6 DUP5 PUSH2 0x1753 JUMP JUMPDEST PUSH2 0x1784 DUP4 PUSH2 0x1122 JUMP JUMPDEST DUP5 ADD SWAP1 POP SWAP4 SWAP3 POP POP POP JUMP JUMPDEST PUSH1 0x0 PUSH1 0x20 DUP3 ADD SWAP1 POP DUP2 DUP2 SUB PUSH1 0x0 DUP4 ADD MSTORE PUSH2 0x17AA DUP2 DUP5 DUP7 PUSH2 0x1762 JUMP JUMPDEST SWAP1 POP SWAP4 SWAP3 POP POP POP JUMP JUMPDEST PUSH32 0x4E487B7100000000000000000000000000000000000000000000000000000000 PUSH1 0x0 MSTORE PUSH1 0x11 PUSH1 0x4 MSTORE PUSH1 0x24 PUSH1 0x0 REVERT JUMPDEST PUSH1 0x0 PUSH2 0x17ED DUP3 PUSH2 0x11B8 JUMP JUMPDEST SWAP2 POP PUSH32 0xFFFFFFFFFFFFFFFFFFFFFFFFFFFFFFFFFFFFFFFFFFFFFFFFFFFFFFFFFFFFFFFF DUP3 SUB PUSH2 0x181F JUMPI PUSH2 0x181E PUSH2 0x17B3 JUMP JUMPDEST JUMPDEST PUSH1 0x1 DUP3 ADD SWAP1 POP SWAP2 SWAP1 POP JUMP JUMPDEST PUSH32 0x436F6E747261637420646F6573206E6F74206578697374000000000000000000 PUSH1 0x0 DUP3 ADD MSTORE POP JUMP JUMPDEST PUSH1 0x0 PUSH2 0x1860 PUSH1 0x17 DUP4 PUSH2 0x10E7 JUMP JUMPDEST SWAP2 POP PUSH2 0x186B DUP3 PUSH2 0x182A JUMP JUMPDEST PUSH1 0x20 DUP3 ADD SWAP1 POP SWAP2 SWAP1 POP JUMP JUMPDEST PUSH1 0x0 PUSH1 0x20 DUP3 ADD SWAP1 POP DUP2 DUP2 SUB PUSH1 0x0 DUP4 ADD MSTORE PUSH2 0x188F DUP2 PUSH2 0x1853 JUMP JUMPDEST SWAP1 POP SWAP2 SWAP1 POP JUMP JUMPDEST PUSH1 0x0 DUP2 SWAP1 POP SWAP3 SWAP2 POP POP JUMP JUMPDEST PUSH1 0x0 PUSH2 0x18AD DUP4 DUP6 PUSH2 0x1896 JUMP JUMPDEST SWAP4 POP PUSH2 0x18BA DUP4 DUP6 DUP5 PUSH2 0x1753 JUMP JUMPDEST DUP3 DUP5 ADD SWAP1 POP SWAP4 SWAP3 POP POP POP JUMP JUMPDEST PUSH1 0x0 PUSH2 0x18D3 DUP3 DUP5 DUP7 PUSH2 0x18A1 JUMP JUMPDEST SWAP2 POP DUP2 SWAP1 POP SWAP4 SWAP3 POP POP POP JUMP JUMPDEST PUSH1 0x0 DUP2 SWAP1 POP DUP2 PUSH1 0x0 MSTORE PUSH1 0x20 PUSH1 0x0 KECCAK256 SWAP1 POP SWAP2 SWAP1 POP JUMP JUMPDEST PUSH1 0x0 DUP2 SLOAD PUSH2 0x1901 DUP2 PUSH2 0x1400 JUMP JUMPDEST PUSH2 0x190B DUP2 DUP7 PUSH2 0x1896 JUMP JUMPDEST SWAP5 POP PUSH1 0x1 DUP3 AND PUSH1 0x0 DUP2 EQ PUSH2 0x1926 JUMPI PUSH1 0x1 DUP2 EQ PUSH2 0x193B JUMPI PUSH2 0x196E JUMP JUMPDEST PUSH1 0xFF NOT DUP4 AND DUP7 MSTORE DUP2 ISZERO ISZERO DUP3 MUL DUP7 ADD SWAP4 POP PUSH2 0x196E JUMP JUMPDEST PUSH2 0x1944 DUP6 PUSH2 0x18DF JUMP JUMPDEST PUSH1 0x0 JUMPDEST DUP4 DUP2 LT ISZERO PUSH2 0x1966 JUMPI DUP2 SLOAD DUP2 DUP10 ADD MSTORE PUSH1 0x1 DUP3 ADD SWAP2 POP PUSH1 0x20 DUP2 ADD SWAP1 POP PUSH2 0x1947 JUMP JUMPDEST DUP4 DUP9 ADD SWAP6 POP POP POP JUMPDEST POP POP POP SWAP3 SWAP2 POP POP JUMP JUMPDEST PUSH1 0x0 PUSH2 0x1983 DUP3 DUP5 PUSH2 0x18F4 JUMP JUMPDEST SWAP2 POP DUP2 SWAP1 POP SWAP3 SWAP2 POP POP JUMP JUMPDEST PUSH32 0x4E6577206465736372697074696F6E206973207468652073616D650000000000 PUSH1 0x0 DUP3 ADD MSTORE POP JUMP JUMPDEST PUSH1 0x0 PUSH2 0x19C4 PUSH1 0x1B DUP4 PUSH2 0x10E7 JUMP JUMPDEST SWAP2 POP PUSH2 0x19CF DUP3 PUSH2 0x198E JUMP JUMPDEST PUSH1 0x20 DUP3 ADD SWAP1 POP SWAP2 SWAP1 POP JUMP JUMPDEST PUSH1 0x0 PUSH1 0x20 DUP3 ADD SWAP1 POP DUP2 DUP2 SUB PUSH1 0x0 DUP4 ADD MSTORE PUSH2 0x19F3 DUP2 PUSH2 0x19B7 JUMP JUMPDEST SWAP1 POP SWAP2 SWAP1 POP JUMP JUMPDEST PUSH32 0x4F776E61626C653A206E6577206F776E657220697320746865207A65726F2061 PUSH1 0x0 DUP3 ADD MSTORE PUSH32 0x6464726573730000000000000000000000000000000000000000000000000000 PUSH1 0x20 DUP3 ADD MSTORE POP JUMP JUMPDEST PUSH1 0x0 PUSH2 0x1A56 PUSH1 0x26 DUP4 PUSH2 0x10E7 JUMP JUMPDEST SWAP2 POP PUSH2 0x1A61 DUP3 PUSH2 0x19FA JUMP JUMPDEST PUSH1 0x40 DUP3 ADD SWAP1 POP SWAP2 SWAP1 POP JUMP JUMPDEST PUSH1 0x0 PUSH1 0x20 DUP3 ADD SWAP1 POP DUP2 DUP2 SUB PUSH1 0x0 DUP4 ADD MSTORE PUSH2 0x1A85 DUP2 PUSH2 0x1A49 JUMP JUMPDEST SWAP1 POP SWAP2 SWAP1 POP JUMP JUMPDEST PUSH32 0x4F776E61626C653A2063616C6C6572206973206E6F7420746865206F776E6572 PUSH1 0x0 DUP3 ADD MSTORE POP JUMP JUMPDEST PUSH1 0x0 PUSH2 0x1AC2 PUSH1 0x20 DUP4 PUSH2 0x10E7 JUMP JUMPDEST SWAP2 POP PUSH2 0x1ACD DUP3 PUSH2 0x1A8C JUMP JUMPDEST PUSH1 0x20 DUP3 ADD SWAP1 POP SWAP2 SWAP1 POP JUMP JUMPDEST PUSH1 0x0 PUSH1 0x20 DUP3 ADD SWAP1 POP DUP2 DUP2 SUB PUSH1 0x0 DUP4 ADD MSTORE PUSH2 0x1AF1 DUP2 PUSH2 0x1AB5 JUMP JUMPDEST SWAP1 POP SWAP2 SWAP1 POP JUMP INVALID LOG2 PUSH5 0x6970667358 0x22 SLT KECCAK256 PUSH13 0x9CFCDB28AF9D0FF9E3E2F3C9E SELFBALANCE 0xEF 0xBA STOP DELEGATECALL SWAP4 0xDB 0xB2 PUSH22 0x4788CADD436AA8D22A64736F6C634300081400330000 "},"methodIdentifiers":{"MAX_BATCH_SIZE()":"cfdbf254","addContracts(address[],string[])":"37809b24","contracts(address)":"69dc9ff3","owner()":"8da5cb5b","removeContract(address)":"c375c2ef","renounceOwnership()":"715018a6","transferOwnership(address)":"f2fde38b","updateContract(address,string)":"5afe435f"}}}}}