{
  "_format": "hh-sol-artifact-1",
  "contractName": "SmartContractManager",
  "sourceName": "contracts/SmartContractManager.sol",
  "abi": [
    {
      "inputs": [],
      "stateMutability": "nonpayable",
      "type": "constructor"
    },
    {
      "anonymous": false,
      "inputs": [
        {
          "indexed": true,
          "internalType": "address",
          "name": "contractAddress",
          "type": "address"
        },
        {
          "indexed": false,
          "internalType": "string",
          "name": "description",
          "type": "string"
        }
      ],
      "name": "ContractAdded",
      "type": "event"
    },
    {
      "anonymous": false,
      "inputs": [
        {
          "indexed": true,
          "internalType": "address",
          "name": "contractAddress",
          "type": "address"
        }
      ],
      "name": "ContractRemoved",
      "type": "event"
    },
    {
      "anonymous": false,
      "inputs": [
        {
          "indexed": true,
          "internalType": "address",
          "name": "contractAddress",
          "type": "address"
        },
        {
          "indexed": false,
          "internalType": "string",
          "name": "newDescription",
          "type": "string"
        }
      ],
      "name": "ContractUpdated",
      "type": "event"
    },
    {
      "anonymous": false,
      "inputs": [
        {
          "indexed": true,
          "internalType": "address",
          "name": "previousOwner",
          "type": "address"
        },
        {
          "indexed": true,
          "internalType": "address",
          "name": "newOwner",
          "type": "address"
        }
      ],
      "name": "OwnershipTransferred",
      "type": "event"
    },
    {
      "inputs": [],
      "name": "MAX_BATCH_SIZE",
      "outputs": [
        {
          "internalType": "uint256",
          "name": "",
          "type": "uint256"
        }
      ],
      "stateMutability": "view",
      "type": "function"
    },
    {
      "inputs": [
        {
          "internalType": "address[]",
          "name": "_contractAddresses",
          "type": "address[]"
        },
        {
          "internalType": "string[]",
          "name": "_descriptions",
          "type": "string[]"
        }
      ],
      "name": "addContracts",
      "outputs": [],
      "stateMutability": "nonpayable",
      "type": "function"
    },
    {
      "inputs": [
        {
          "internalType": "address",
          "name": "",
          "type": "address"
        }
      ],
      "name": "contracts",
      "outputs": [
        {
          "internalType": "string",
          "name": "",
          "type": "string"
        }
      ],
      "stateMutability": "view",
      "type": "function"
    },
    {
      "inputs": [],
      "name": "owner",
      "outputs": [
        {
          "internalType": "address",
          "name": "",
          "type": "address"
        }
      ],
      "stateMutability": "view",
      "type": "function"
    },
    {
      "inputs": [
        {
          "internalType": "address",
          "name": "_contractAddress",
          "type": "address"
        }
      ],
      "name": "removeContract",
      "outputs": [],
      "stateMutability": "nonpayable",
      "type": "function"
    },
    {
      "inputs": [],
      "name": "renounceOwnership",
      "outputs": [],
      "stateMutability": "nonpayable",
      "type": "function"
    },
    {
      "inputs": [
        {
          "internalType": "address",
          "name": "newOwner",
          "type": "address"
        }
      ],
      "name": "transferOwnership",
      "outputs": [],
      "stateMutability": "nonpayable",
      "type": "function"
    },
    {
      "inputs": [
        {
          "internalType": "address",
          "name": "_contractAddress",
          "type": "address"
        },
        {
          "internalType": "string",
          "name": "_newDescription",
          "type": "string"
        }
      ],
      "name": "updateContract",
      "outputs": [],
      "stateMutability": "nonpayable",
      "type": "function"
    }
  ],
  "bytecode": "0x608060405234801561001057600080fd5b5061002d61002261004c60201b60201c565b61005460201b60201c565b610047670926368adb6eff3260c01b61011860201b60201c565b61011b565b600033905090565b60008060009054906101000a900473ffffffffffffffffffffffffffffffffffffffff169050816000806101000a81548173ffffffffffffffffffffffffffffffffffffffff021916908373ffffffffffffffffffffffffffffffffffffffff1602179055508173ffffffffffffffffffffffffffffffffffffffff168173ffffffffffffffffffffffffffffffffffffffff167f8be0079c531659141344cd1fd0a4f28419497f9722a3daafe3b4186f6b6457e060405160405180910390a35050565b50565b611b2e806200012b6000396000f3fe608060405234801561001057600080fd5b50600436106100885760003560e01c80638da5cb5b1161005b5780638da5cb5b146100ff578063c375c2ef1461011d578063cfdbf25414610139578063f2fde38b1461015757610088565b806337809b241461008d5780635afe435f146100a957806369dc9ff3146100c5578063715018a6146100f5575b600080fd5b6100a760048036038101906100a29190610f1a565b610173565b005b6100c360048036038101906100be919061104f565b610659565b005b6100df60048036038101906100da91906110af565b610957565b6040516100ec919061116c565b60405180910390f35b6100fd6109f7565b005b610107610a0b565b604051610114919061119d565b60405180910390f35b610137600480360381019061013291906110af565b610a34565b005b610141610c23565b60405161014e91906111d1565b60405180910390f35b610171600480360381019061016c91906110af565b610c28565b005b61018767c4627f4a5ab8dcbb60c01b610cab565b61018f610cae565b6101a367e84ac1c8c8b180d360c01b610cab565b6101b7679a14060da9547f1660c01b610cab565b6101cb67d0e463ad0c26ee2e60c01b610cab565b6101df675ce55ee282f6272160c01b610cab565b6101f367b1a72015e8d4279d60c01b610cab565b81819050848490501461023b576040517f08c379a000000000000000000000000000000000000000000000000000000000815260040161023290611238565b60405180910390fd5b61024f675086497eb927a27660c01b610cab565b610263674d8fc7ce0be7928960c01b610cab565b61027767c42ce77fa305774a60c01b610cab565b61028b67b7c3a19b635fccb160c01b610cab565b60148484905011156102d2576040517f08c379a00000000000000000000000000000000000000000000000000000000081526004016102c9906112a4565b60405180910390fd5b6102e667d8c73ff7e8e93ee760c01b610cab565b6102fa67017560685ffba1f160c01b610cab565b61030e670c8f8613c5fa2f2160c01b610cab565b60005b848490508110156106525761033067dc0a8e8cab6644b860c01b610cab565b61034467410face3abd9a5c660c01b610cab565b6000858583818110610359576103586112c4565b5b905060200201602081019061036e91906110af565b905061038467eb47b982860fbe7760c01b610cab565b6103986766947f0b8b5f58e260c01b610cab565b3660008585858181106103ae576103ad6112c4565b5b90506020028101906103c09190611302565b915091506103d867393ea1a3d9b0e00b60c01b610cab565b6103ec67e9d2e769bab9c95060c01b610cab565b61040067bf8140637c415e4460c01b610cab565b600073ffffffffffffffffffffffffffffffffffffffff168373ffffffffffffffffffffffffffffffffffffffff160361046f576040517f08c379a0000000000000000000000000000000000000000000000000000000008152600401610466906113b1565b60405180910390fd5b610483679f34d30013321d3560c01b610cab565b61049767aa583e18380df83360c01b610cab565b6104ab67ab846b3e7c4fb7f260c01b610cab565b6104bf678cb6eda87c139fca60c01b610cab565b6000600160008573ffffffffffffffffffffffffffffffffffffffff1673ffffffffffffffffffffffffffffffffffffffff168152602001908152602001600020805461050b90611400565b90501461054d576040517f08c379a00000000000000000000000000000000000000000000000000000000081526004016105449061147d565b60405180910390fd5b6105616717d154ccd32c482560c01b610cab565b61057567f2c401badcdd537f60c01b610cab565b8181600160008673ffffffffffffffffffffffffffffffffffffffff1673ffffffffffffffffffffffffffffffffffffffff16815260200190815260200160002091826105c3929190611683565b506105d86795ba663c0ab0574460c01b610cab565b6105ec6775c153518994442160c01b610cab565b8273ffffffffffffffffffffffffffffffffffffffff167fccdd6d86e4b322abaa06bff8c608dd15838f4159cc081c9c66a50fec320f38a7838360405161063492919061178f565b60405180910390a2505050808061064a906117e2565b915050610311565b5050505050565b61066d67c7a0864630f9d9d760c01b610cab565b610675610cae565b610689676270b1c088e4426b60c01b610cab565b61069d6756a583b7c63fed9460c01b610cab565b6106b167606dc94a13f99f8760c01b610cab565b6106c567af10bc2afccb6c4260c01b610cab565b6106d9677accae29c3a282cd60c01b610cab565b6000600160008573ffffffffffffffffffffffffffffffffffffffff1673ffffffffffffffffffffffffffffffffffffffff168152602001908152602001600020805461072590611400565b905011610767576040517f08c379a000000000000000000000000000000000000000000000000000000000815260040161075e90611876565b60405180910390fd5b61077b67969f993f61d17de660c01b610cab565b61078f678fbefa1d60427aed60c01b610cab565b6107a367de532d291bd6ed9160c01b610cab565b6107b76794d65860f4cef78060c01b610cab565b81816040516107c79291906118c6565b6040518091039020600160008573ffffffffffffffffffffffffffffffffffffffff1673ffffffffffffffffffffffffffffffffffffffff16815260200190815260200160002060405161081b9190611977565b604051809103902003610863576040517f08c379a000000000000000000000000000000000000000000000000000000000815260040161085a906119da565b60405180910390fd5b61087767cc2df581c256f31a60c01b610cab565b61088b6766e179212b03389960c01b610cab565b8181600160008673ffffffffffffffffffffffffffffffffffffffff1673ffffffffffffffffffffffffffffffffffffffff16815260200190815260200160002091826108d9929190611683565b506108ee67deed78fb621148e760c01b610cab565b61090267b800f73e6d28695660c01b610cab565b8273ffffffffffffffffffffffffffffffffffffffff167fb52cc2c9728d9a3773c00a19a9c543f53d1e8befcdc0135d047a86e916fa7f06838360405161094a92919061178f565b60405180910390a2505050565b6001602052806000526040600020600091509050805461097690611400565b80601f01602080910402602001604051908101604052809291908181526020018280546109a290611400565b80156109ef5780601f106109c4576101008083540402835291602001916109ef565b820191906000526020600020905b8154815290600101906020018083116109d257829003601f168201915b505050505081565b6109ff610cae565b610a096000610d2c565b565b60008060009054906101000a900473ffffffffffffffffffffffffffffffffffffffff16905090565b610a4867a28d127582b1644960c01b610cab565b610a50610cae565b610a6467a31d21ba15df9f1e60c01b610cab565b610a78678370184bde8af0fa60c01b610cab565b610a8c670841adba70d1ec0960c01b610cab565b610aa06702de47b5caa70b9d60c01b610cab565b610ab467ada2246a34dce03560c01b610cab565b6000600160008373ffffffffffffffffffffffffffffffffffffffff1673ffffffffffffffffffffffffffffffffffffffff1681526020019081526020016000208054610b0090611400565b905011610b42576040517f08c379a0000000000000000000000000000000000000000000000000000000008152600401610b3990611876565b60405180910390fd5b610b5667af9d907d6adcf05660c01b610cab565b610b6a67b43cf58f94365c4260c01b610cab565b600160008273ffffffffffffffffffffffffffffffffffffffff1673ffffffffffffffffffffffffffffffffffffffff1681526020019081526020016000206000610bb59190610df8565b610bc9677670b3d1bbec824e60c01b610cab565b610bdd6744c3e877627b3db260c01b610cab565b8073ffffffffffffffffffffffffffffffffffffffff167f8d30d41865a0b811b9545d879520d2dde9f4cc49e4241f486ad9752bc904b56560405160405180910390a250565b601481565b610c30610cae565b600073ffffffffffffffffffffffffffffffffffffffff168173ffffffffffffffffffffffffffffffffffffffff1603610c9f576040517f08c379a0000000000000000000000000000000000000000000000000000000008152600401610c9690611a6c565b60405180910390fd5b610ca881610d2c565b50565b50565b610cb6610df0565b73ffffffffffffffffffffffffffffffffffffffff16610cd4610a0b565b73ffffffffffffffffffffffffffffffffffffffff1614610d2a576040517f08c379a0000000000000000000000000000000000000000000000000000000008152600401610d2190611ad8565b60405180910390fd5b565b60008060009054906101000a900473ffffffffffffffffffffffffffffffffffffffff169050816000806101000a81548173ffffffffffffffffffffffffffffffffffffffff021916908373ffffffffffffffffffffffffffffffffffffffff1602179055508173ffffffffffffffffffffffffffffffffffffffff168173ffffffffffffffffffffffffffffffffffffffff167f8be0079c531659141344cd1fd0a4f28419497f9722a3daafe3b4186f6b6457e060405160405180910390a35050565b600033905090565b508054610e0490611400565b6000825580601f10610e165750610e35565b601f016020900490600052602060002090810190610e349190610e38565b5b50565b5b80821115610e51576000816000905550600101610e39565b5090565b600080fd5b600080fd5b600080fd5b600080fd5b600080fd5b60008083601f840112610e8457610e83610e5f565b5b8235905067ffffffffffffffff811115610ea157610ea0610e64565b5b602083019150836020820283011115610ebd57610ebc610e69565b5b9250929050565b60008083601f840112610eda57610ed9610e5f565b5b8235905067ffffffffffffffff811115610ef757610ef6610e64565b5b602083019150836020820283011115610f1357610f12610e69565b5b9250929050565b60008060008060408587031215610f3457610f33610e55565b5b600085013567ffffffffffffffff811115610f5257610f51610e5a565b5b610f5e87828801610e6e565b9450945050602085013567ffffffffffffffff811115610f8157610f80610e5a565b5b610f8d87828801610ec4565b925092505092959194509250565b600073ffffffffffffffffffffffffffffffffffffffff82169050919050565b6000610fc682610f9b565b9050919050565b610fd681610fbb565b8114610fe157600080fd5b50565b600081359050610ff381610fcd565b92915050565b60008083601f84011261100f5761100e610e5f565b5b8235905067ffffffffffffffff81111561102c5761102b610e64565b5b60208301915083600182028301111561104857611047610e69565b5b9250929050565b60008060006040848603121561106857611067610e55565b5b600061107686828701610fe4565b935050602084013567ffffffffffffffff81111561109757611096610e5a565b5b6110a386828701610ff9565b92509250509250925092565b6000602082840312156110c5576110c4610e55565b5b60006110d384828501610fe4565b91505092915050565b600081519050919050565b600082825260208201905092915050565b60005b838110156111165780820151818401526020810190506110fb565b60008484015250505050565b6000601f19601f8301169050919050565b600061113e826110dc565b61114881856110e7565b93506111588185602086016110f8565b61116181611122565b840191505092915050565b600060208201905081810360008301526111868184611133565b905092915050565b61119781610fbb565b82525050565b60006020820190506111b2600083018461118e565b92915050565b6000819050919050565b6111cb816111b8565b82525050565b60006020820190506111e660008301846111c2565b92915050565b7f41727261792073697a65206e6f7420657175616c000000000000000000000000600082015250565b60006112226014836110e7565b915061122d826111ec565b602082019050919050565b6000602082019050818103600083015261125181611215565b9050919050565b7f42617463682073697a65206d617820323020616c6c6f77656400000000000000600082015250565b600061128e6019836110e7565b915061129982611258565b602082019050919050565b600060208201905081810360008301526112bd81611281565b9050919050565b7f4e487b7100000000000000000000000000000000000000000000000000000000600052603260045260246000fd5b600080fd5b600080fd5b600080fd5b6000808335600160200384360303811261131f5761131e6112f3565b5b80840192508235915067ffffffffffffffff821115611341576113406112f8565b5b60208301925060018202360383131561135d5761135c6112fd565b5b509250929050565b7f436f6e74726163744d616e616765723a20496e76616c69642061646472657373600082015250565b600061139b6020836110e7565b91506113a682611365565b602082019050919050565b600060208201905081810360008301526113ca8161138e565b9050919050565b7f4e487b7100000000000000000000000000000000000000000000000000000000600052602260045260246000fd5b6000600282049050600182168061141857607f821691505b60208210810361142b5761142a6113d1565b5b50919050565b7f436f6e747261637420616c726561647920657869737473000000000000000000600082015250565b60006114676017836110e7565b915061147282611431565b602082019050919050565b600060208201905081810360008301526114968161145a565b9050919050565b600082905092915050565b7f4e487b7100000000000000000000000000000000000000000000000000000000600052604160045260246000fd5b60008190508160005260206000209050919050565b60006020601f8301049050919050565b600082821b905092915050565b6000600883026115397fffffffffffffffffffffffffffffffffffffffffffffffffffffffffffffffff826114fc565b61154386836114fc565b95508019841693508086168417925050509392505050565b6000819050919050565b600061158061157b611576846111b8565b61155b565b6111b8565b9050919050565b6000819050919050565b61159a83611565565b6115ae6115a682611587565b848454611509565b825550505050565b600090565b6115c36115b6565b6115ce818484611591565b505050565b5b818110156115f2576115e76000826115bb565b6001810190506115d4565b5050565b601f82111561163757611608816114d7565b611611846114ec565b81016020851015611620578190505b61163461162c856114ec565b8301826115d3565b50505b505050565b600082821c905092915050565b600061165a6000198460080261163c565b1980831691505092915050565b60006116738383611649565b9150826002028217905092915050565b61168d838361149d565b67ffffffffffffffff8111156116a6576116a56114a8565b5b6116b08254611400565b6116bb8282856115f6565b6000601f8311600181146116ea57600084156116d8578287013590505b6116e28582611667565b86555061174a565b601f1984166116f8866114d7565b60005b82811015611720578489013582556001820191506020850194506020810190506116fb565b8683101561173d5784890135611739601f891682611649565b8355505b6001600288020188555050505b50505050505050565b82818337600083830152505050565b600061176e83856110e7565b935061177b838584611753565b61178483611122565b840190509392505050565b600060208201905081810360008301526117aa818486611762565b90509392505050565b7f4e487b7100000000000000000000000000000000000000000000000000000000600052601160045260246000fd5b60006117ed826111b8565b91507fffffffffffffffffffffffffffffffffffffffffffffffffffffffffffffffff820361181f5761181e6117b3565b5b600182019050919050565b7f436f6e747261637420646f6573206e6f74206578697374000000000000000000600082015250565b60006118606017836110e7565b915061186b8261182a565b602082019050919050565b6000602082019050818103600083015261188f81611853565b9050919050565b600081905092915050565b60006118ad8385611896565b93506118ba838584611753565b82840190509392505050565b60006118d38284866118a1565b91508190509392505050565b60008190508160005260206000209050919050565b6000815461190181611400565b61190b8186611896565b94506001821660008114611926576001811461193b5761196e565b60ff198316865281151582028601935061196e565b611944856118df565b60005b8381101561196657815481890152600182019150602081019050611947565b838801955050505b50505092915050565b600061198382846118f4565b915081905092915050565b7f4e6577206465736372697074696f6e206973207468652073616d650000000000600082015250565b60006119c4601b836110e7565b91506119cf8261198e565b602082019050919050565b600060208201905081810360008301526119f3816119b7565b9050919050565b7f4f776e61626c653a206e6577206f776e657220697320746865207a65726f206160008201527f6464726573730000000000000000000000000000000000000000000000000000602082015250565b6000611a566026836110e7565b9150611a61826119fa565b604082019050919050565b60006020820190508181036000830152611a8581611a49565b9050919050565b7f4f776e61626c653a2063616c6c6572206973206e6f7420746865206f776e6572600082015250565b6000611ac26020836110e7565b9150611acd82611a8c565b602082019050919050565b60006020820190508181036000830152611af181611ab5565b905091905056fea26469706673582212206c09cfcdb28af9d0ff9e3e2f3c9e47efba00f493dbb2754788cadd436aa8d22a64736f6c63430008140033",
  "linkReferences": {},
  "deployedLinkReferences": {}
}